:020000040800F2
:100000009006002065010008831100088111000896
:1000100000000000000000000000000000000000E0
:1000200000000000000000000000000015120008A1
:100030000000000000000000C911000817120008AD
:100040007701000877010008051200087701000811
:1000500077010008770100087701000877010008A0
:100060000000000077010008770100087701000810
:100070007701000877010008000000007701000800
:1000800000000000770100080000000000000000F0
:1000900077010008000000007701000877010008E0
:1000A0007701000877010008770100087701000850
:1000B0007701000877010008000000000000000040
:1000C00000F002F800F03EF80CA030C80838241800
:1000D0002D18A246671EAB4654465D46AC4201D180
:1000E00000F030F87E460F3E0FCCB6460126334274
:1000F00000D0FB1AA246AB4633431847CC1300008E
:10010000EC130000103A02D378C878C1FAD852072D
:1001100001D330C830C101D504680C6070470000BD
:100120000023002400250026103A01D378C1FBD813
:10013000520700D330C100D50B6070471FB51FBDFB
:1001400010B510BD00F0FAF81146FFF7F7FF01F007
:10015000EDF800F012F903B4FFF7F2FF03BC00F072
:1001600019F900000748804707480047FEE7FEE707
:10017000FEE7FEE7FEE7FEE704480549054A064BB1
:100180007047000021120008C10000089000002004
:1001900090060020900200209002002001E004C0A0
:1001A000091F0429FBD28B0701D50280801CC907D7
:1001B00000D00270704700290BD0C30702D0027034
:1001C000401C491E022904D3830702D50280801CEB
:1001D000891EE3E70022EEE70022DFE700220309A1
:1001E0008B422CD3030A8B4211D300239C464EE052
:1001F00003460B433CD4002243088B4231D303090E
:100200008B421CD3030A8B4201D394463FE0C309BF
:100210008B4201D3CB01C01A524183098B4201D3D7
:100220008B01C01A524143098B4201D34B01C01AC2
:10023000524103098B4201D30B01C01A5241C3083A
:100240008B4201D3CB00C01A524183088B4201D3A9
:100250008B00C01A524143088B4201D34B00C01A95
:100260005241411A00D201465241104670475DE0AA
:10027000CA0F00D04942031000D34042534000222D
:100280009C4603098B422DD3030A8B4212D3FC22D6
:10029000890112BA030A8B420CD3890192118B4255
:1002A00008D3890192118B4204D389013AD092116B
:1002B00000E08909C3098B4201D3CB01C01A524126
:1002C00083098B4201D38B01C01A524143098B42EF
:1002D00001D34B01C01A524103098B4201D30B01D8
:1002E000C01A5241C3088B4201D3CB00C01A5241FD
:1002F00083088B4201D38B00C01A5241D9D24308E4
:100300008B4201D34B00C01A5241411A00D2014620
:10031000634652415B10104601D34042002B00D58A
:100320004942704763465B1000D3404201B500204C
:10033000C046C04602BD704770477047754600F022
:1003400025F8AE46050069465346C008C0008546FC
:1003500018B020B5FFF710FF60BC00274908B6466B
:100360000026C0C5C0C5C0C5C0C5C0C5C0C5C0C5C4
:10037000C0C5403D49008D46704710B50446C04693
:10038000C0462046FFF7E7FE10BD0000004870475A
:100390002C00002001491820ABBEFEE72600020019
:1003A000704770B5044600F0CDF80546601C00D0DB
:1003B000641C00F0C7F8401BA042FAD370BD0000D7
:1003C000F8B500230124A2E027469F403A4070D0B0
:1003D0004D68022D01D0122D14D1DD08AD002D186D
:1003E00000952D6A5E07AC46F50E0F26AE46AE4070
:1003F0006546B543AC460E697546AE4065462E432C
:10040000009D2E624D68012D05D0022D03D0112DC7
:1004100001D0122D16D185680326AC465D00AE468C
:10042000AE406546B543AC46CE687546AE406546BF
:100430002E43866046680D79BE43ED06ED0F9D4064
:100440003543456006685F000325BD40AE46AE43B8
:100450000D79B446AE07B60FBE4065462E43066022
:10046000C6687546AE438D68BD403543C5604D686E
:10047000ED004BD5294D6E6B26436E639E08284DCB
:10048000B6007519AC46AD689E07360F0F27B7400A
:10049000BD4305273F07B84201D1002715E0214F92
:1004A000B84201D1012710E01F4FB84202D1022704
:1004B0000BE02BE01D4FB84201D1032705E01C4F94
:1004C000B84201D1052700E00627B7402F43654613
:1004D000AF60184D2E684F689643FF0300D5164352
:1004E0002E606E684F689643BF0300D516436E605A
:1004F000AE684F689643FF0200D51643AE60EE68C3
:100500004F689643BF0200D51643EE605B1C0A6835
:100510001546DD4000D057E7F8BD0000001002404E
:10052000000001400004005000080050000C005082
:10053000001C005000040140002A01D08161704776
:100540008162704701480068704700000000002089
:1005500002480168491C016070470000000000204B
:1005600010B508480024016840221143016020466C
:1005700000F00AF8002801D0012401E000F01CF886
:10058000204610BD0020024070B5054609487D2177
:100590000024C9000068FFF721FE00F0D9FD002803
:1005A00001D0012404E000222946501E00F01AF870
:1005B000204670BD040000200448416B0122114315
:1005C0004163816B02041143816370470010024054
:1005D000C106C90E0120884001490860704700002B
:1005E00000E100E010B500F0CDFD10BD024801684B
:1005F0000215114301607047007000400248016815
:100600004215114301607047007000400A4B1A68A0
:100610009208920002431A600848036904221343B7
:100620000361012906D040BF20BF20BF016991436B
:100630000161704730BFF9E70070004000ED00E055
:10064000F8B504460078544D800672D5524E002706
:10065000403EB06BC00004D4B06BA9050843B06342
:1006600001274E480168C90511D40168821511435C
:100670000160FFF767FF009005E0FFF763FF009957
:10068000401A642837D845480068C005F5D5326857
:100690000321090560680A400140914208D08103A6
:1006A000890F032904D13168890301D50120F8BDE0
:1006B0002A69032109040A4022D0084090421FD031
:1006C000207880061CD528692A6988430121C9043D
:1006D0000A432A612A698A432A612861C0050FD525
:1006E000FFF730FF009008E0FFF72CFF0099411A58
:1006F0002B48814201D90320F8BD28698005F3D534
:1007000061688803800F032805D1326800058243A1
:1007100001400A43326028690322616812041140D3
:1007200008432861002F04D0B16B012000078143EA
:10073000B1632078C00705D0E868A1688008800010
:100740000843E8602078800705D5E8680C218843D5
:10075000E1680843E8602078400706D5E86803218F
:100760008902884321690843E8602078000706D59C
:10077000E86803210903884361690843E860207839
:10078000000606D5E868032189048843A169084367
:10079000E8600020F8BD00004010024000700040FA
:1007A00088130000F8B50E4605007DD05348006858
:1007B000C007C00FB0420AD250480168490849003A
:1007C000314301600068C007C00FB04271D1287882
:1007D0004B4C800705D5E068F0218843A9680843A1
:1007E000E0602878C00752D06868022817D0032834
:1007F00018D02168012818D08905002959DAE16844
:10080000890889000143E160FFF79CFE696807469B
:10081000022912D003291CD0012926D033E02168F7
:100820008903EAE721688901E7E74907E5E7FFF778
:1008300089FEC11B3348814223D8E0680007800F3E
:100840000228F4D123E0FFF77DFEC11B2D48814231
:1008500017D8E0680007800F0328F4D117E0FFF7EE
:1008600071FEC11B274881420BD8E0680007800F4A
:100870000128F4D10BE0FFF765FEC11B214881423E
:1008800001D90320F8BDE0680007800FF3D11B48B1
:100890000168C907C90FB1420DD90168490849006B
:1008A00031430160006800E003E0C007C00FB042C0
:1008B00001D00120F8BD2878400706D5E06807215F
:1008C00009028843E9680843E0602878000707D5F3
:1008D000E0680721C90288432969C9000843E0602C
:1008E00000F072F8E168084A0906090F515CC84037
:1008F000064908600020FFF747FEF8BD00200240CF
:100900000010024088130000AC140008040000200E
:1009100070B51F2101602B490A68012553032D047E
:100920000022002B03DA05231B04436005E00B685B
:10093000DB0301D5456000E042600B68DC07012362
:10094000002C01D0C36000E0C2604C68E404E40EF7
:1009500004610C68E40501D5836100E082614C68A4
:10096000240EC4614C680726760334400462154C9B
:1009700040342669760502D50526360204E026694C
:10098000F60503D5FF260136866000E08260246903
:10099000E40701D0436100E042610A68D20102D558
:1009A0000222426200E04362CA682A408262CA6848
:1009B0000F239B041A40C262C968032292051140AA
:1009C000016370BD0010024010B5184AD1680C20B8
:1009D000084004280BD0082810D00C2810D05068EC
:1009E0000004410F0120C003491C884010BD10685D
:1009F000C00601D50E4810BD0E4810BD0E4810BDF2
:100A000088020E4B000F185C0902D368890F491C3D
:100A1000DB0301D5084A05E01268D20601D5044A75
:100A200000E0044A5043FFF7D9FB10BD001002401C
:100A300000093D000024F40000127A00BC140008F4
:100A4000FEB505007ED0FE4CE7680C20E668074046
:100A50000120000406402878C00747D0082F05D0A1
:100A60000C2F0AD101200004864206D120688003A1
:100A70003CD568680028E5D038E0012069680004AA
:100A8000814203D121680143216011E00523012245
:100A90001B0492049942216802D111432160F1E7BD
:100AA00081432160216801400091206890432060CB
:100AB000686800280DD0FFF745FD009005E0FFF7BE
:100AC00041FD0099401A64287AD820688003F6D541
:100AD0000CE0FFF737FD009005E0FFF733FD0099CC
:100AE000401A6428F0D820688003F6D4287880075C
:100AF00055D50923E868042F0DD00C2F01D1002E05
:100B000009D000283BD02168994301432160FFF7B9
:100B100019FD064627E02168490701D5002891D034
:100B200061681F22120291432A6912021143616017
:100B30002168994301432160FFF746FFE1680906F8
:100B40000A0F00E079E1BF49895CC840BE490860EE
:100B50000020FFF719FD002872D120E0FFF7F2FC1A
:100B6000801B0228B0D820684007F7D560681F2195
:100B70000902884329690902084360600FE0206880
:100B8000400840002060FFF7DDFC064604E0FFF768
:100B9000D9FC801B022897D820684007F7D4287812
:100BA000C0065FD5002F0CD0A869002849D0206866
:100BB000FF21013108432060FFF7C4FC06462DE009
:100BC000C0E02068800502D5A8690028A7D0606829
:100BD000072149038843296A084360606068297FC8
:100BE0000002000A090608436060286A410B0120E0
:100BF000C003491C8840E16809060A0F9149895CD5
:100C0000C840914908600020FFF7BEFC002817D1BA
:100C100028E0FFF797FC801B0228A3D820688005F6
:100C2000F7D56068072149038843296A0843606053
:100C30006068297F0002000A09060843606011E02D
:100C4000E1E02168FF20013081432160FFF77AFC59
:100C5000064604E0FFF776FC801B022872D8206865
:100C60008005F7D42878794E000724D568690028D4
:100C7000306910D0012108433061FFF763FC009018
:100C800005E0FFF75FFC0099401A02285AD8306946
:100C90008007F6D50FE0400840003061FFF752FCB6
:100CA000009005E0FFF74EFC0099401A022849D851
:100CB00030698007F6D42878400765D50020029077
:100CC000A06BC00006D4A06B012109070843A063F4
:100CD000012002905E480168C90511D4016882159F
:100CE00011430160FFF72EFC009005E0FFF72AFC9E
:100CF0000099401A642825D855480068C005F5D5E4
:100D0000FF20AA680130824203D131690143316179
:100D100011E001218902002A07D005231B029A4213
:100D200003D132690A433261EFE7326982433261AB
:100D3000306988433061A86800280FD0FFF702FCB3
:100D4000009007E05EE0FFF7FDFB0099411A414883
:100D5000814257D830698005F5D50DE0FFF7F2FBE9
:100D6000009006E0FFF7EEFB0099411A39488142F6
:100D700048D830698005F5D40298002804D0A06BCB
:100D8000012109078843A063686A002864D00C2FFA
:100D90003ED0012636060228206805D0B0432060E8
:100DA000FFF7D0FB05462FE0B0432060FFF7CAFBFA
:100DB000074604E0FFF7C6FBC01B022822D82068C4
:100DC0008001F7D4E96AA86AE2680843296BFD2329
:100DD0001B049A4311430843E060206830432060BD
:100DE000FFF7B0FB054604E0FFF7ACFB401B022811
:100DF00008D820688001F7D52EE0FFF7A3FB401B41
:100E0000022801D90320FEBD20688001F5D423E02B
:100E10000128F8D0E06801210904AA6A0140914242
:100E20000BD10F218904EA6A0140914205D10321C7
:100E300089050840296B88420ED00120FEBD0000C4
:100E400000100240AC1400080400002040100240D2
:100E500000700040881300000020EFE7F8B5054659
:100E6000044620352878012819D001202870022056
:100E700068702168CA20486221685320486220684F
:100E80008168012292029143816020688168120189
:100E900091438160FFF756FB064600270FE00220D2
:100EA000F8BDFFF74FFB811B7D20C000814206D9B2
:100EB0002168FF204862032068702F70F8BD206809
:100EC000C0684007EDD52168FF20486201206870A6
:100ED0002F700020F8BD0000F7B505460446203508
:100EE000287882B0012814D0012028700220687070
:100EF0002168CA20486221685320486220688068BF
:100F000000264005FF27002812DAFFF71BFB0090A0
:100F10000AE0022005B0F0BDFFF714FB0099411A6A
:100F20007D20C00081421CD82068C0684007F3D4EF
:100F30002068816801229202914381602068C16823
:100F400080221140204A8918C160FFF7FBFA009007
:100F50000DE0FFF7F7FA0099411A7D20C0008142A9
:100F600005D920684762032068702E70D2E7206898
:100F7000C0684007EDD52168039848612068816802
:100F8000C908C900816020688168049A11438160A2
:100F90000E480268012109050A43026082680A437B
:100FA0008260206881680122920311438160206879
:100FB00081681211114381602068476201206870C6
:100FC0002E700020A6E700007FFBFFFF0004014019
:100FD0007047000010B504460068C068400509D598
:100FE0002046FFF7F5FF2068C16880221140054ABE
:100FF0008918C1600120044900054861012020349E
:10100000607010BD7FFBFFFF00040140F8B50400D5
:1010100050D0254620356878002803D12870204616
:1010200000F052F8022068702168CA2048622168E6
:1010300053204862204600F0C8F8FF260427002805
:10104000206802D046626F7034E081681D4A11400A
:101050008160216888686268A369104322691A4325
:10106000104388602168E06808612068016922896E
:101070001204114301612068C16880229143C1605C
:101080002068C16C89088900C164E1696069014315
:101090002068C26C1143C1642068806880060BD44C
:1010A000204600F03BF8002806D0206846626F70AA
:1010B000002028700120F8BD206846620120687079
:1010C0000020F8BDBFFF8FFF00B595B0082000904D
:1010D00000200990012005906846FFF7B1FC002828
:1010E00000D0FEE720200D9000030E900DA8FFF722
:1010F000A7FA002800D0FEE7074801690122920400
:1011000011430161002211460220FFF76BFA022011
:10111000FFF75EFA15B000BD4010024070B50446FE
:101120000068C168A0229143C160FFF70BFA7D26D9
:101130000546F60006E0FFF705FA401BB04201D96C
:10114000032070BD2068C0688006F4D5002070BD03
:10115000094910B5401E884201D9012010BD074C35
:1011600060610321081F00F00DF80020A061072036
:101170002061002010BD0000FFFFFF0000E000E044
:10118000FEE770478307FF22DB0E9A408907090EAE
:10119000994000280BDA0007000F08388308084838
:1011A0009B001818C36993430B43C36170478308BE
:1011B00004489B001B181868904308431860704748
:1011C00000ED00E000E400E0704770B50446006800
:1011D000C168490613D40021C943C160FFF7B2F9C1
:1011E0007D260546F60006E0FFF7ACF9401BB0424D
:1011F00001D9032070BD2068C0684006F4D50020E6
:1012000070BD000010B50248FFF7E4FE10BD0000FD
:1012100008000020704710B5FFF79AF910BD0000D4
:1012200010480168821511430160C1680E4A1140DF
:10123000C16001680D4A1140016081684908490098
:10124000816001680122920491430160C168FD221E
:1012500012049143C160002101610549C003886007
:1012600070470000001002400C40FF88F6FFF6FEB9
:1012700000ED00E010B592B034216846FEF7ACFFF7
:1012800014210DA8FEF7A8FF1748816B0204114333
:101290008163164801680322D2029143C21489185F
:1012A00001606846FFF734FB0221002000910190A5
:1012B0000A9048040B9010220001012404920C9023
:1012C000039409916846FFF7BBFB002800D0FEE7B6
:1012D00003200E9001210D940DA8FFF763FA00285A
:1012E00000D0FEE712B010BD0010024000700040B8
:1012F00000B587B014216846FEF76EFF0A48C26A3F
:1013000001210A43C262C06A01910840059002208F
:101310000090002003900291052069460007FFF726
:101320004FF807B000BD000000100240FFF718F9A9
:1013300000F026F8FFF7DCFF05250F4E2D070022F1
:1013400002212846FFF7F8F83046FFF72AF800F0A8
:101350004FF814240948FFF781FD0422214607486D
:10136000FFF7BAFD01210846FFF750F9FFF782FFAA
:10137000FFF7BEFFE3E7000088130000080000202D
:1013800010B592B034216846FEF726FF14210DA84F
:10139000FEF722FF154801680322D2029143C214CE
:1013A000891801600121022003911021009004910D
:1013B000099040040B90000100240C900A946846A8
:1013C000FFF73EFB002800D0FEE70F200D90032022
:1013D0000E900F941094012111940DA8FFF7E2F9DB
:1013E000002800D0FEE712B010BD000000700040E1
:1013F000F0B587B0FFF702F9FFF7F8F8254CE06881
:101400000121C9030843E060E06A01210843E0626A
:10141000E06A08400590E06A02263043E062E06A34
:1014200030400590E06A04273843E062E06A002516
:101430003840059018480090032001900520694627
:1014400002950007FEF7BCFF69461448FEF7B8FF97
:1014500069461348FEF7B4FFE06A40084000E062C6
:10146000E06AB043E062E06AB843E0620D490E48CA
:1014700022C07C2101608560FF2105612831456122
:1014800041600838FFF7C2FD002800D0FEE707B032
:10149000F0BD000000100240FFFF000000040050FB
:1014A0000008005000280040080000200000000054
:1014B00000000000010203040607080903040608EF
:1014C0000C10182030000000E81400080000002074
:1014D0000800000004010008F014000808000020C3
:1014E0008806000020010008000000000000200025
:04000005080000C12E
:00000001FF
