:020000040800F2
:100000005807002065010008F7110008F5110008E5
:1000100000000000000000000000000000000000E0
:100020000000000000000000000000003F12000877
:1000300000000000000000003D120008411200080E
:1000400077010008770100087701000877010008B0
:1000500077010008770100083D0500084705000802
:100060000000000077010008770100087701000810
:100070007701000877010008000000007701000800
:1000800000000000770100080000000000000000F0
:1000900077010008000000007701000877010008E0
:1000A00077010008770100087701000805170008AC
:1000B0007701000877010008000000000000000040
:1000C00000F002F800F03EF80CA030C80838241800
:1000D0002D18A246671EAB4654465D46AC4201D180
:1000E00000F030F87E460F3E0FCCB6460126334274
:1000F00000D0FB1AA246AB4633431847C419000090
:10010000E4190000103A02D378C878C1FAD852072F
:1001100001D330C830C101D504680C6070470000BD
:100120000023002400250026103A01D378C1FBD813
:10013000520700D330C100D50B6070471FB51FBDFB
:1001400010B510BD00F0BCF91146FFF7F7FF01F044
:1001500079FB00F0E6F903B4FFF7F2FF03BC01F00E
:10016000FAFA00000748804707480047FEE7FEE725
:10017000FEE7FEE7FEE7FEE704480549054A064BB1
:100180007047000049120008C10000085801002013
:100190005807002058030020580300207047FEB580
:1001A000054610460C46184373D0AE468C460020D8
:1001B000AD1A01469C4167D36646002701243D469F
:1001C000B61A9D4102D313463A4621246546764627
:1001D0002F04360C3E432D0CB61A9D4104D3150C4A
:1001E0001B042B4312041034654676462F06360A4C
:1001F0003E432D0AB61A9D4104D3150E1B022B4314
:1002000012020834654676462F0736093E432D090B
:10021000B61A9D4104D3150F1B012B431201241D57
:1002200065467646AF07B6083E43AD08B61A9D410F
:1002300004D3950F9B002B439200A41C6546764681
:10024000EF0776083E436D08B61A9D411AD39218FF
:100250005B41641C16E00018764665464941B71AB2
:100260009D410191009009D36046B11A98418E4694
:100270008446009801990025401C6941DD07520819
:100280002A435B08641EE6D57246634603B0F0BDA0
:10029000FFE700200146C046C0462A462346F5E750
:1002A0000FB4054910B503AA029800F0D9F810BCA4
:1002B00008BC04B0184700000400002001E004C09E
:1002C000091F0429FBD28B0701D50280801CC907B6
:1002D00000D00270704700290BD0C30702D0027013
:1002E000401C491E022904D3830702D50280801CCA
:1002F000891EE3E70022EEE70022DFE70022030980
:100300008B422CD3030A8B4211D300239C464EE030
:1003100003460B433CD4002243088B4231D30309EC
:100320008B421CD3030A8B4201D394463FE0C3099E
:100330008B4201D3CB01C01A524183098B4201D3B6
:100340008B01C01A524143098B4201D34B01C01AA1
:10035000524103098B4201D30B01C01A5241C30819
:100360008B4201D3CB00C01A524183088B4201D388
:100370008B00C01A524143088B4201D34B00C01A74
:100380005241411A00D201465241104670475DE089
:10039000CA0F00D04942031000D34042534000220C
:1003A0009C4603098B422DD3030A8B4212D3FC22B5
:1003B000890112BA030A8B420CD3890192118B4234
:1003C00008D3890192118B4204D389013AD092114A
:1003D00000E08909C3098B4201D3CB01C01A524105
:1003E00083098B4201D38B01C01A524143098B42CE
:1003F00001D34B01C01A524103098B4201D30B01B7
:10040000C01A5241C3088B4201D3CB00C01A5241DB
:1004100083088B4201D38B00C01A5241D9D24308C2
:100420008B4201D34B00C01A5241411A00D20146FF
:10043000634652415B10104601D34042002B00D569
:100440004942704763465B1000D3404201B500202B
:10045000C046C04602BD70477047704770470000F5
:10046000084B70B50D467B4400F013F8044628464F
:1004700000F022F8002802D00020C04370BD2046C2
:1004800070BD00006B13000001694A1C026108780E
:10049000704700B58FB00291002105910549019385
:1004A0007944039111460490684600F028F80FB093
:1004B00000BD0000E5FFFFFFC068802108407047D5
:1004C000754600F037F8AE46050069465346C00849
:1004D000C000854618B020B5FFF74EFE60BC00276F
:1004E0004908B6460026C0C5C0C5C0C5C0C5C0C500
:1004F000C0C5C0C5C0C5403D49008D467047F8B570
:10050000064600244768806800903046F56803E09E
:100510000099B847641C3046A8470028F8D1204607
:10052000F8BD10B50446C046C0462046FFF713FE8E
:1005300010BD000000487047F400002010B50420F2
:1005400000F024F810BD10B50120800200F01EF864
:1005500010BD70B5044600F0E7F80546601C00D0F9
:10056000641C00F0E1F8401BA042FAD370BD00000B
:10057000054904220B15042801D0984202D10868CD
:1005800010430860704700000070004010B5044937
:100590004A69024202D04861FFF7EAFF10BD00003D
:1005A00000040140F8B500230124A2E027469F4043
:1005B0003A4070D04D68022D01D0122D14D1DD08C3
:1005C000AD002D1800952D6A5E07AC46F50E0F267E
:1005D000AE46AE406546B543AC460E697546AE4084
:1005E00065462E43009D2E624D68012D05D0022DDB
:1005F00003D0112D01D0122D16D185680326AC46EB
:100600005D00AE46AE406546B543AC46CE68754625
:10061000AE4065462E43866046680D79BE43ED06C2
:10062000ED0F9D403543456006685F000325BD40E2
:10063000AE46AE430D79B446AE07B60FBE40654632
:100640002E430660C6687546AE438D68BD4035438F
:10065000C5604D68ED004BD5294D6E6B26436E632A
:100660009E08284DB6007519AC46AD689E07360F3A
:100670000F27B740BD4305273F07B84201D10027E8
:1006800015E0214FB84201D1012710E01F4FB842B9
:1006900002D102270BE02BE01D4FB84201D1032706
:1006A00005E01C4FB84201D1052700E00627B740FE
:1006B0002F436546AF60184D2E684F689643FF0381
:1006C00000D516432E606E684F689643BF0300D571
:1006D00016436E60AE684F689643FF0200D516431E
:1006E000AE60EE684F689643BF0200D51643EE60D9
:1006F0005B1C0A681546DD4000D057E7F8BD0000D6
:1007000000100240000001400004005000080050AA
:10071000000C0050001C005000040140002A01D0D1
:10072000816170478162704701480068704700002E
:100730000800002002480168491C01607047000061
:100740000800002010B50848002401684022114329
:100750000160204600F00AF8002801D0012401E0E1
:1007600000F01CF8204610BD0020024070B5054680
:1007700009487D210024C9000068FFF7BFFD00F093
:10078000CDFB002801D0012404E000222946501EA0
:1007900000F01AF8204670BD0C0000200448416BA0
:1007A000012211434163816B02041143816370474D
:1007B00000100240C106C90E0120884001490860AE
:1007C0007047000000E100E010B500F015FD10BD1D
:1007D0000248016802151143016070470070004033
:1007E00002480168421511430160704700700040E3
:1007F0000A4B1A689208920002431A60084803697B
:10080000042213430361012906D040BF20BF20BF4B
:10081000016991430161704730BFF9E70070004002
:1008200000ED00E0F8B50E4605007DD053480068A5
:10083000C007C00FB0420AD25048016849084900B9
:10084000314301600068C007C00FB04271D1287801
:100850004B4C800705D5E068F0218843A968084320
:10086000E0602878C00752D06868022817D00328B3
:1008700018D02168012818D08905002959DAE168C3
:10088000890889000143E160FFF74EFF6968074668
:10089000022912D003291CD0012926D033E0216877
:1008A0008903EAE721688901E7E74907E5E7FFF7F8
:1008B0003BFFC11B3348814223D8E0680007800F0B
:1008C0000228F4D123E0FFF72FFFC11B2D488142FE
:1008D00017D8E0680007800F0328F4D117E0FFF76E
:1008E00023FFC11B274881420BD8E0680007800F17
:1008F0000128F4D10BE0FFF717FFC11B214881420B
:1009000001D90320F8BDE0680007800FF3D11B4830
:100910000168C907C90FB1420DD9016849084900EA
:1009200031430160006800E003E0C007C00FB0423F
:1009300001D00120F8BD2878400706D5E0680721DE
:1009400009028843E9680843E0602878000707D572
:10095000E0680721C90288432969C9000843E060AB
:1009600000F092F8E168084A0906090F515CC84096
:10097000064908600020FFF7F9FEF8BD002002409C
:1009800000100240881300009C1A00080C00002090
:1009900070B51F2101602B490A68012553032D04FE
:1009A0000022002B03DA05231B04436005E00B68DB
:1009B000DB0301D5456000E042600B68DC070123E2
:1009C000002C01D0C36000E0C2604C68E404E40E77
:1009D00004610C68E40501D5836100E082614C6824
:1009E000240EC4614C680726760334400462154C1B
:1009F00040342669760502D50526360204E02669CC
:100A0000F60503D5FF260136866000E08260246982
:100A1000E40701D0436100E042610A68D20102D5D7
:100A20000222426200E04362CA682A408262CA68C7
:100A30000F239B041A40C262C96803229205114029
:100A4000016370BD00100240044805490068C96890
:100A5000044A4905490F515CC84070470C0000200A
:100A600000100240B51A0008044805490068C9682A
:100A7000044A8904490F515CC84070470C000020AB
:100A800000100240B51A000810B5184AD1680C20B1
:100A9000084004280BD0082810D00C2810D050682B
:100AA0000004410F0120C003491C884010BD10689C
:100AB000C00601D50E4810BD0E4810BD0E4810BD31
:100AC00088020E4B000F185C0902D368890F491C7D
:100AD000DB0301D5084A05E01268D20601D5044AB5
:100AE00000E0044A5043FFF709FC10BD001002402B
:100AF00000093D000024F40000127A00AC1A00083E
:100B0000FEB505007ED0FE4CE7680C20E668074085
:100B10000120000406402878C00747D0082F05D0E0
:100B20000C2F0AD101200004864206D120688003E0
:100B30003CD568680028E5D038E0012069680004E9
:100B4000814203D121680143216011E00523012284
:100B50001B0492049942216802D111432160F1E7FC
:100B6000814321602168014000912068904320600A
:100B7000686800280DD0FFF7D7FD009005E0FFF76B
:100B8000D3FD0099401A64287AD820688003F6D5EE
:100B90000CE0FFF7C9FD009005E0FFF7C5FD0099E7
:100BA000401A6428F0D820688003F6D4287880079B
:100BB00055D50923E868042F0DD00C2F01D1002E44
:100BC00009D000283BD02168994301432160FFF7F9
:100BD000ABFD064627E02168490701D5002891D0E2
:100BE00061681F22120291432A6912021143616057
:100BF0002168994301432160FFF746FFE168090638
:100C00000A0F00E079E1BF49895CC840BE4908602D
:100C10000020FFF7ABFD002872D120E0FFF784FD34
:100C2000801B0228B0D820684007F7D560681F21D4
:100C30000902884329690902084360600FE02068BF
:100C4000400840002060FFF76FFD064604E0FFF714
:100C50006BFD801B022897D820684007F7D42878BE
:100C6000C0065FD5002F0CD0A869002849D02068A5
:100C7000FF21013108432060FFF756FD06462DE0B5
:100C8000C0E02068800502D5A8690028A7D0606868
:100C9000072149038843296A084360606068297F07
:100CA0000002000A090608436060286A410B01201F
:100CB000C003491C8840E16809060A0F9149895C14
:100CC000C840914908600020FFF750FD002817D167
:100CD00028E0FFF729FD801B0228A3D820688005A3
:100CE000F7D56068072149038843296A0843606093
:100CF0006068297F0002000A09060843606011E06D
:100D0000E1E02168FF20013081432160FFF70CFD05
:100D1000064604E0FFF708FD801B022872D8206811
:100D20008005F7D42878794E000724D56869002813
:100D3000306910D0012108433061FFF7F5FC0090C5
:100D400005E0FFF7F1FC0099401A02285AD83069F3
:100D50008007F6D50FE0400840003061FFF7E4FC63
:100D6000009005E0FFF7E0FC0099401A022849D8FE
:100D700030698007F6D42878400765D500200290B6
:100D8000A06BC00006D4A06B012109070843A06333
:100D9000012002905E480168C90511D401688215DE
:100DA00011430160FFF7C0FC009005E0FFF7BCFCB9
:100DB0000099401A642825D855480068C005F5D523
:100DC000FF20AA680130824203D1316901433161B9
:100DD00011E001218902002A07D005231B029A4253
:100DE00003D132690A433261EFE7326982433261EB
:100DF000306988433061A86800280FD0FFF794FC61
:100E0000009007E05EE0FFF78FFC0099411A41482F
:100E1000814257D830698005F5D50DE0FFF784FC95
:100E2000009006E0FFF780FC0099411A39488142A2
:100E300048D830698005F5D40298002804D0A06B0A
:100E4000012109078843A063686A002864D00C2F39
:100E50003ED0012636060228206805D0B043206027
:100E6000FFF762FC05462FE0B0432060FFF75CFC13
:100E7000074604E0FFF758FCC01B022822D8206870
:100E80008001F7D4E96AA86AE2680843296BFD2368
:100E90001B049A4311430843E060206830432060FC
:100EA000FFF742FC054604E0FFF73EFC401B02282A
:100EB00008D820688001F7D52EE0FFF735FC401BED
:100EC000022801D90320FEBD20688001F5D423E06B
:100ED0000128F8D0E06801210904AA6A0140914282
:100EE0000BD10F218904EA6A0140914205D1032107
:100EF00089050840296B88420ED00120FEBD000004
:100F0000001002409C1A00080C0000204010024013
:100F100000700040881300000020EFE7094910B579
:100F2000401E884201D9012010BD074C6061032199
:100F3000081F00F061F90020A06107202061002057
:100F400010BD0000FFFFFF0000E000E070B50400EE
:100F500017D02420606720680168490849000160B3
:100F6000206800250560206845602068856020466F
:100F700000F03EF8E5676567A567603425740020DA
:100F800070BD012070BD10B5040003D0606F002853
:100F900002D007E0012010BD00217020015520463D
:100FA00000F028F82420606720680168490849009B
:100FB0000160204600F060FA0128ECD0606A002849
:100FC00002D0204600F06AF9206841680922D20266
:100FD00091434160206881682A22914381602068A2
:100FE0000168012211430160204600F0BDF910BDE7
:100FF0007047000010B586B0044614216846FFF71C
:101000007BF915492068884223D11448416B01229D
:10101000920311434163C26A01210A43C262C06A5A
:1010200003910840059003204002009002200190A7
:101030000020029004200490052069460007FFF775
:10104000B1FA1B20FFF7B6FB002201211B20FFF79E
:10105000BBFB06B010BD000000380140001002408C
:10106000F0B5836F202B54D100290AD0002A08D074
:101070008568DC01A54206D10369002B03D1CB07AB
:1010800001D00120F0BD034660331E7C012E40D00C
:1010900001261E744165014640310A834A830022BD
:1010A000FF260266A54204D10569002D13D11A4D11
:1010B0000AE07F27002D09D001263607B5420CD162
:1010C0000569002D05D03F258D8307E00569002DBA
:1010D00001D08F8302E08E8300E08A83C2672221E1
:1010E000816701688D68012635438D608168A14262
:1010F00002D1016900290AD0084901661A74006802
:101100000168FF222132114301600020F0BD044933
:10111000F3E70220F0BD0000FF01000021140008E9
:10112000C91300087047FFB50446406F83B01746E7
:101130000D4620285CD1002D0AD0002F08D0A168D0
:10114000C001814207D12069002804D1E80702D0FC
:10115000012007B0F0BD204660300290007C0128DD
:1011600046D00298012101740020E06721206067C9
:10117000FFF7DAFA2646403601903782778201205F
:10118000A1680003814202D12069002802D02F46C5
:10119000002511E000270FE000228021204600F00A
:1011A0007FFA002815D1002F15D021683878886281
:1011B0007F1C708A401E7082708A019B00280698EE
:1011C0000090E9D100224021204600F069FA002871
:1011D00008D00320BDE728882168C005C00D8862BB
:1011E000AD1CE6E720206067029900200874B0E794
:1011F0000220AEE7FEE770478307FF22DB0E9A402E
:101200008907090E994000280BDA0007000F0838FB
:10121000830808489B001818C36993430B43C361B4
:101220007047830804489B001B18186890430843C4
:101230001860704700ED00E000E400E07047704780
:1012400010B5FFF777FA10BD1048016882151143F9
:101250000160C1680E4A1140C16001680D4A114029
:101260000160816849084900816001680122920497
:1012700091430160C168FD2212049143C1600021C5
:1012800001610549C00388607047000000100240FA
:101290000C40FF88F6FFF6FE00ED00E010B5818CF3
:1012A000C90707D001684A6801235B049A43836A2F
:1012B0001A434A60818C890707D501684A6801236F
:1012C0001B049A43C36A1A434A60818C490707D5B5
:1012D00001684A6801239B049A43036B1A434A60DE
:1012E000818C090707D501684A680123DB039A430B
:1012F000436B1A434A60818CC90607D5026891681E
:1013000001231B039943836B19439160818C8906E8
:1013100007D501688A6801235B039A43C36B1A43AC
:101320008A60818C490612D503685A680121090533
:10133000046C8A4322435A60026C8A4207D10268D5
:10134000516803235B059943436C19435160818CB9
:10135000090607D501684A680123DB04806C9A43BB
:1013600002434A6010BD0000F8B500260446C66777
:10137000FFF7DAF9054620680068124F000709D523
:1013800001212B46002249052046009700F088F9EC
:1013900000280DD12068006840070BD501212B469D
:1013A000002289052046009700F07AF9002801D034
:1013B0000320F8BD20206067A067603426740020F9
:1013C000F8BD0000FFFFFF0110B5014640318B8BD7
:1013D000846F0268222C04D0906908210843906130
:1013E00010BD526A446D1A402280426D921C4265C3
:1013F0004A8B521E4A83498B0029F1D101680A6841
:10140000FF2321339A430A6001688A685208520018
:101410008A602021816700210166FFF783FE10BDED
:1014200010B5014640318B8B846F0268222C04D0AA
:10143000906908210843906110BD526A1A40436DBB
:101440001A70426D521C42654A8B521E4A83498B68
:101450000029F1D101680A68FF2321339A430A6009
:1014600001688A68520852008A6020218167002141
:101470000166FFF757FE10BDF8B504462669A2685D
:10148000E76932436669102000253E4323683243F2
:1014900078491E68784F3E4016431E6023685A689C
:1014A00003263603B243E66832435A602368A269D2
:1014B0008B4201D0266A32439E680B273F02BE430F
:1014C00016439E606D4E23686D4AB3420CD1D268BC
:1014D0009207920F06D0012A38D0022A34D0032A6C
:1014E00020D11EE001201DE0664EB3420AD1D26831
:1014F0000C26324026D0042A28D0082A24D00C2AD0
:1015000010D10EE08B420DD1D66803229202164014
:1015100018D001229202B61A18D0B61A14D09642E8
:1015200000D10820564A0126403A574FF6038B4215
:1015300036D100280CD002280DD0042812D008285B
:101540001FD11CE00020EDE70220EBE70420E9E7D3
:10155000FFF77AFA08E01068C00601D5384605E0C2
:101560004A4803E0FFF790FA002873D06268510000
:101570005118814205D81103814202D303E030465D
:10158000F4E7012566E0010E06025008002330183A
:101590005941FEF704FE03210902411A3C4A55E075
:1015A000E169B14232D1030000F0C8F809070A0D21
:1015B00006250606062B0600E3E7FFF745FA1CE0C2
:1015C000FFF752FA19E010686168C00602D54808B2
:1015D000304A01E0304A48088018FEF78FFE80B29A
:1015E00001462E4A10399142CBD8511C01400007C8
:1015F000400F08432CE0FFF747FA616840004A08B3
:10160000EAE76168012248081204E5E7030000F0F8
:1016100095F809070A0D06260606062C0600B0E70F
:10162000FFF712FA1DE0FFF71FFA1AE01068616871
:10163000C00602D54808C01902E014484A0810182C
:10164000FEF75CFE80B20146144A1039914298D8E8
:101650002168C8600020206660662846F8BDFFF754
:1016600013FA61684A088018EAE761684808801937
:10167000E6E7000000480040F369FFEF0038014052
:10168000401002400044004000093D000024F400E6
:10169000FFFC0F0000127A000048E801EFFF000095
:1016A000FFB581B017460E4604460A9D09E0681C46
:1016B00007D0FFF739F80499401AA8420CD8002D3A
:1016C0000AD02068C1693046884318D00020B8424B
:1016D000EDD0002005B0F0BD20680168FF22A132E6
:1016E0009143016020688168490849008160202099
:1016F0006067A0670020603420740320EAE70120BF
:10170000E5E700000A480068C069C04380060DD4C0
:101710000848416A0848064B028880339954521C95
:1017200091B20180632901D9002101807047000036
:1017300010000020003801400000002030B4744642
:10174000641E2578641CAB4200D21D46635D5B00BD
:10175000E31830BC1847704710B592B03421684682
:10176000FEF7CAFD14210DA8FEF7C6FD1748816BD0
:10177000020411438163164801680322D202914397
:10178000C214891801606846FFF702F9022100209F
:10179000009101900A9048040B901022000101244E
:1017A00004920C90039409916846FFF7A9F9002868
:1017B00000D0FEE703200E9001210D940DA8FFF745
:1017C00031F8002800D0FEE712B010BD0010024032
:1017D0000070004013B5044B012269460348FFF72F
:1017E000A2FC00981CBD0000FFFF000010000020BC
:1017F00030B587B014216846FEF77EFD0F49CA6AEE
:1018000001200243CA62C96A022401400190029089
:1018100000940020052505912D0703906946284670
:10182000FEF7C0FE0420009005480190694602942E
:101830002846FEF7B7FE07B030BD0000001002409A
:1018400000001110FEF77EFF00F082F8FFF7D0FFD6
:10185000E1246402204600F001F905250F4E2D0712
:10186000002202212846FEF759FF3046FEF771FE9E
:101870000BA0FEF715FD00F0A3F800F02DF80121F4
:101880000846FEF7B5FFFFF767FFFFF7B1FF2046F9
:1018900000F0E4F809A0FEF703FDE1E7881300007B
:1018A00074727920746F20656E7465722073746F22
:1018B00070206D6F64652E2E2E0D0A006578697498
:1018C0002066726F6D2073746F70206D6F64652E6B
:1018D0002E2E0D0A0000000030B587B01421684696
:1018E000FEF70AFD1748C16A01242143C162C06A9C
:1018F0000525204005900420009013480190022007
:101900002D07029069462846FEF74CFE002203216F
:101910000620FEF759FF0620FEF74CFFA0020090BC
:101920000A480190694602942846FEF73BFE0022D1
:1019300002210720FEF748FF0720FEF73BFF07B014
:1019400030BD000000100240000011100000211006
:1019500010B592B034216846FEF7CEFC14210DA8D4
:10196000FEF7CAFC154801680322D2029143C21453
:101970008918016001210220039110210090049137
:10198000099040040B90000100240C900A946846D2
:10199000FFF7B6F8002800D0FEE70F200D900320D7
:1019A0000E900F941094012111940DA8FEF73AFFA8
:1019B000002800D0FEE712B010BD0000007000400B
:1019C00070B586B02048FFF7C1FAFEF709FFFEF7B1
:1019D000FFFE1E4CE0680121C9030843E060E06A95
:1019E00001210843E062E06A08400590E06A0225B0
:1019F0002843E062E06A28400590E06A042630430C
:101A0000E062E06A6946304005901148009003208A
:101A100001900020029005200007FEF7C3FD6946F3
:101A20000C48FEF7BFFD69460B48FEF7BBFDE06AB8
:101A300040084000E062E06AA843E062E06AB04328
:101A4000E06206B070BD00001000002000100240EF
:101A5000FFFF0000000400500008005010B50E49C0
:101A60000C4A0A60486000208860C860086188618C
:101A70000C20486130204862901488634000C8639D
:101A80000846FFF780FA0449012280310248FFF737
:101A9000E7FA10BD003801401000002000000000EF
:101AA00000000000010203040607080903040608F9
:101AB0000C10182030000000000102030400000098
:101AC000E01A0008000000201000000004010008D7
:101AD000F01A00081000002048070000200100084C
:101AE00000000000000000000000000000002000D6
:04000005080000C12E
:00000001FF
